:100000000C9462000C948A000C948A000C948A0070
:100010000C948A000C948A000C948A000C948A0038
:100020000C948A000C948A000C948A000C948A0028
:100030000C948A000C948A000C948A000C948A0018
:100040000C9439030C948A000C94A9030C94830338
:100050000C948A000C948A000C948A000C948A00F8
:100060000C948A000C948A000000000024002700F1
:100070002A0000000000250028002B0000000000DE
:1000800023002600290004040404040404040202DA
:100090000202020203030303030301020408102007
:1000A0004080010204081020010204081020000012
:1000B0000008000201000003040700000000000027
:1000C00000005A0511241FBECFEFD8E0DEBFCDBF20
:1000D00011E0A0E0B1E0EEE1FBE002C005900D927E
:1000E000A231B107D9F721E0A2E1B1E001C01D9230
:1000F000A93BB207E1F710E0C2E6D0E004C02197C7
:10010000FE010E948705C136D107C9F70E94DB03B3
:100110000C948D050C940000833081F028F481301C
:1001200099F08230A9F008958730A9F08830C9F09D
:100130008430B1F4809180008F7D03C08091800075
:100140008F7780938000089584B58F7784BD08955C
:1001500084B58F7DFBCF8091B0008F778093B00006
:1001600008958091B0008F7DF9CFCF93DF93282F32
:1001700030E0F901E255FF4F8491F901E656FF4F57
:10018000D491F901EA57FF4FC491CC23A1F081111A
:100190000E948C00EC2FF0E0EE0FFF1FE458FF4FA1
:1001A000A591B491EC91ED2381E090E009F480E019
:1001B000DF91CF91089580E090E0FACF1F93CF9325
:1001C000DF93282F30E0F901E255FF4F8491F901C8
:1001D000E656FF4FD491F901EA57FF4FC491CC2363
:1001E000A9F0162F81110E948C00EC2FF0E0EE0F89
:1001F000FF1FEE58FF4FA591B4918FB7F894EC9183
:10020000111108C0D095DE23DC938FBFDF91CF9111
:100210001F910895DE2BF8CFCF93DF9390E0FC0180
:10022000E656FF4F24918A579F4FFC018491882303
:10023000D1F090E0880F991FFC01E859FF4FA5917C
:10024000B491FC01EE58FF4FC591D49161110EC0DD
:100250009FB7F8948C91E22FE0958E238C932881A0
:10026000E223E8839FBFDF91CF9108958FB7F89481
:10027000EC91E22BEC938FBFF6CF1F93CF93DF93DC
:10028000182FEB0161E00E940C01209739F460E027
:10029000812FDF91CF911F910C94DE00E12FF0E0D0
:1002A000E255FF4FE491E33039F148F4E130B9F021
:1002B000E230E9F0C038D10554F361E0E9CFE7302E
:1002C00029F1E83059F1E430A9F78091800080628B
:1002D00080938000D0938B00C0938A0004C084B5C3
:1002E000806884BDC7BDDF91CF911F91089584B50B
:1002F000806284BDC8BDF7CF809180008068809304
:100300008000D0938900C0938800EDCF8091B00029
:1003100080688093B000C093B300E5CF8091B000B7
:1003200080628093B000C093B400DDCF3FB7F894F3
:100330008091B5019091B601A091B701B091B8013B
:1003400026B5A89B05C02F3F19F00196A11DB11D30
:100350003FBFBA2FA92F982F8827BC01CD01620F6C
:10036000711D811D911D42E0660F771F881F991F27
:100370004A95D1F708958F929F92AF92BF92CF92F4
:10038000DF92EF92FF920E9496014B015C0185E0A3
:10039000C82ED12CE12CF12C0E9496016819790904
:1003A0008A099B09683E734081059105A8F321E005
:1003B000C21AD108E108F10888EE880E83E0981E81
:1003C000A11CB11CC114D104E104F10429F7FF9070
:1003D000EF90DF90CF90BF90AF909F908F90089557
:1003E000AF92BF92CF92DF92EF92FF920F931F9343
:1003F000CF93DF936C017B018B01040F151FEB0181
:100400005E01AE18BF08C017D10759F06991D60137
:10041000ED91FC910190F081E02DC6010995892BA9
:1004200079F7C501DF91CF911F910F91FF90EF9068
:10043000DF90CF90BF90AF900895FC01538D448D15
:10044000252F30E0842F90E0821B930B541710F07F
:10045000CF96089501970895FC01918D828D98178C
:1004600061F0A28DAE0FBF2FB11D5D968C91928D64
:100470009F5F9F73928F90E008958FEF9FEF089595
:10048000FC01918D828D981731F0828DE80FF11D5E
:10049000858D90E008958FEF9FEF0895FC01918D79
:1004A000228D892F90E0805C9F4F821B91098F7372
:1004B0009927089583E191E00E944E0221E0892B63
:1004C00009F420E0822F089580E090E0892B29F044
:1004D0000E945A0281110C9400000895FC01A48D21
:1004E000A80FB92FB11DA35ABF4F2C91848D90E056
:1004F00001968F739927848FA689B7892C93A08939
:10050000B1898C91837080648C93938D848D9813C2
:1005100006C00288F389E02D80818F7D8083089555
:10052000EF92FF920F931F93CF93DF93EC0181E043
:10053000888F9B8D8C8D98131AC0E889F9898081EA
:1005400085FF15C09FB7F894EE89FF896083E8891D
:10055000F98980818370806480839FBF81E090E00F
:10056000DF91CF911F910F91FF90EF900895F62E9C
:100570000B8D10E00F5F1F4F0F731127E02E8C8D36
:100580008E110CC00FB607FCFACFE889F98980817B
:1005900085FFF5CFCE010E946E02F1CFEB8DEC0FFF
:1005A000FD2FF11DE35AFF4FF0829FB7F8940B8F98
:1005B000EA89FB8980818062CFCFCF93DF93EC0102
:1005C000888D8823B9F0AA89BB89E889F9898C913B
:1005D00085FD03C0808186FD0DC00FB607FCF7CFF7
:1005E0008C9185FFF2CF808185FFEDCFCE010E94F7
:1005F0006E02E9CFDF91CF91089566E970E085E062
:100600000E943D0170E060E086E00E943D0166E9E5
:1006100070E08AE00E943D0170E060E08BE00C94A5
:100620003D0170E060E085E00E943D0166E970E018
:1006300086E00E943D0170E060E08AE00E943D019A
:1006400066E970E08BE00C943D0170E060E085E0CD
:100650000E943D0170E060E086E00E943D0170E094
:1006600060E08AE00E943D0170E060E08BE00C9465
:100670003D011F920F920FB60F9211242F933F93BB
:100680008F939F93AF93BF938091B1019091B201EB
:10069000A091B301B091B4013091B00123E0230FD8
:1006A0002D3758F50196A11DB11D2093B0018093FF
:1006B000B1019093B201A093B301B093B4018091C2
:1006C000B5019091B601A091B701B091B801019622
:1006D000A11DB11D8093B5019093B601A093B70100
:1006E000B093B801BF91AF919F918F913F912F919E
:1006F0000F900FBE0F901F90189526E8230F0296BB
:10070000A11DB11DD2CF1F920F920FB60F921124CF
:100710002F933F934F935F936F937F938F939F9309
:10072000AF93BF93EF93FF9383E191E00E946E023A
:10073000FF91EF91BF91AF919F918F917F916F91B9
:100740005F914F913F912F910F900FBE0F901F908F
:1007500018951F920F920FB60F9211242F938F931B
:100760009F93EF93FF93E0912301F0912401808107
:10077000E0912901F0912A0182FD1BC090818091B6
:100780002C018F5F8F7320912D01821741F0E09132
:100790002C01F0E0ED5EFE4F958F80932C01FF91D0
:1007A000EF919F918F912F910F900FBE0F901F90FF
:1007B00018958081F4CF789484B5826084BD84B527
:1007C000816084BD85B5826085BD85B5816085BD4C
:1007D00080916E00816080936E0010928100809104
:1007E000810082608093810080918100816080938C
:1007F0008100809180008160809380008091B100B1
:1008000084608093B1008091B00081608093B000DB
:1008100080917A00846080937A0080917A0082606F
:1008200080937A0080917A00816080937A00809131
:100830007A00806880937A001092C100E0912301D1
:10084000F091240182E08083E0911F01F09120016A
:100850001082E0912101F09122018FEC80831092AF
:100860002B01E0912701F091280186E08083E0913F
:100870002501F0912601808180618083E09125012E
:10088000F0912601808188608083E0912501F091BC
:100890002601808180688083E0912501F091260106
:1008A00080818F7D808360E08EE00E940C0160E09B
:1008B00081E10E940C0161E085E00E940C0161E091
:1008C00086E00E940C0161E08AE00E940C0161E078
:1008D0008BE00E940C0100E010E0C1E00E942503C3
:1008E00083E191E00E944E02181619060CF0D6C062
:1008F00083E191E00E942C02863509F061C0C0932B
:10090000120180911201882359F383E191E00E9442
:100910002C028A3409F44EC0A4F4873409F444C08C
:100920004CF48234F1F1863461F70E94FD020E949A
:10093000BB01E7CF8834D9F1893419F70E94FD0251
:10094000F6CF8335D1F18CF48C34B1F08235C9F611
:1009500066E970E085E00E943D0170E060E086E0BD
:100960000E943D0170E060E013C0873511F08737C9
:1009700041F610921201C5CF70E060E085E00E9460
:100980003D0170E060E086E00E943D0166E970E0B4
:100990008AE00E943D0170E060E08BE00E943D0132
:1009A000C6CF0E941103C3CF0E94FD02C0CF0E9498
:1009B0001103BDCF0E941103BACF0E942503B7CF08
:1009C000863709F08DCFC0931201809112018823E0
:1009D00009F486CF8EE00E94B5000197B1F481E161
:1009E0000E94B500892B89F40E9425030E94BB0157
:1009F00070E060E085E00E943D0170E060E086E02C
:100A00000E943D0164E670E02CC08EE00E94B500BB
:100A1000892B91F08EE00E94B500892BB9F18EE010
:100A20000E94B500019739F581E10E94B500019758
:100A300011F50E9425031DC081E10E94B5000197B8
:100A400049F70E9425030E94BB0164E670E085E03F
:100A50000E943D0170E060E086E00E943D0170E090
:100A600060E08AE00E943D0170E060E08BE00E945F
:100A70003D010E94BB0183E191E00E942C028F7D29
:100A8000873509F0A2CF109212019FCF81E10E9419
:100A9000B500892B21F664E670E0ACCF0115110595
:100AA00009F41CCF0E945A02882309F417CF0E9430
:100AB000000014CFE3E1F1E01382128288EE93E0AC
:100AC000A0E0B0E084839583A683B78384E091E0BF
:100AD0009183808385EC90E09587848784EC90E017
:100AE0009787868780EC90E0918B808B81EC90E0FB
:100AF000938B828B82EC90E0958B848B86EC90E0DC
:100B0000978B868B118E128E138E148E0895EE0F96
:0E0B1000FF1F0590F491E02D0994F894FFCF9B
:100B1E00000000009002F0011D02DD024E022C02C8
:020B2E00400283
:00000001FF
